:100000000C948C040C94B4040C94B4040C94B404B8
:100010000C94B4040C94B4040C94B4040C94B40480
:100020000C94B4040C94B4040C94F91E0C94791F31
:100030000C94B4040C94B4040C94B4040C94B40460
:100040000C94B4040C94B4040C94B4040C94B40450
:100050000C94B4040C94B4040C94B4040C948F3039
:100060000C94B4040C94B4040C94B4040C94B40430
:100070000C94B4040C94B4040C94B4040C94B40420
:100080000C94B4040C94B4040C94B4040C94B40410
:100090000C94B4040C94B4040C94B4040C94B40400
:1000A0000C94B4040C94B4040C94B4040606000C30
:1000B0000C1E1E3F1E3F0C1E000C0606000C0C1EE4
:1000C000123F123F0C1E000C20204F4B20200044FA
:1000D000656661756C740042617564207261746557
:1000E0003A0057656C636F6D6520746F20746865A6
:1000F0002041726475626F79206465736B746F70F0
:1001000020656E7669726F6E6D656E74210A577226
:10011000697474656E206279204A616D6573204848
:100120006F7761726420666F722074686520417217
:100130006475626F792067616D65206A616D203436
:1001400020776865726520746865207468656D65E0
:100150002077617320276E6F7420612067616D6561
:10016000272E0A5468652067726170686963616C44
:10017000207374796C6520697320626173656420F3
:100180006F6E2074686520636C6173736963204DC2
:100190006163696E746F736820696E7465726661FD
:1001A00063652E0037383941420A34353643440AF4
:1001B00031323345460A3000566F6C746167653AD8
:1001C000200054656D70657261747572653A200027
:1001D000416C6C206F6E004F666600426C75650066
:1001E000477265656E0052656400456E61626C65BC
:1001F0002072656D6F74652067616D657061640064
:100200004D6F75736520737065656400456E61623E
:100210006C652072656D6F7465206D6F7573650018
:10022000456E61626C652072656D6F7465206B65EB
:1002300079626F61726400486F6C6420412B4220C8
:10024000746F2063616E63656C0052656D6F7465D9
:100250002067616D6570616420656E61626C6564C4
:10026000005072657373204120746F2063616E6368
:10027000656C0052656D6F7465206D6F75736520D8
:10028000656E61626C65640052656D6F7465206BAC
:100290006579626F61726420656E61626C6564008D
:1002A000D5F08D14A1C881CFD9F1AF2000090B0082
:1002B000020004007070F8F0FB70F8007000040099
:1002C0000200000000000000070207000700000015
:1002D000000000050B000000FE1EFF00FE000000F5
:1002E000030007000700070003070B00FCFCFE5C8F
:1002F000FFACFFFCFFFCFE00FC0003030703070349
:1003000007030703070003090B00FE54FE54FF0018
:10031000FF00FF00FF54FF54FE00FE000301030135
:1003200007000700070007010701030003090B008E
:10033000FFAAFFFEFFFEFF00FF7AFF00FFFEFF00A7
:10034000FF0007020703070307030702070307036A
:10035000070007050B00FE24FF50FF24FF00FE00EE
:10036000030107000701070003070B007800FF06E1
:10037000FF06FF06FF00FF007800000000000000FD
:1003800007000000000000090B00FFFEFFAAFFAA03
:10039000FFA0FFAEFFACFEE8FC00F8000703070279
:1003A00007020702070207020703070007070345C2
:1003B0004550524F4D000000630900000008803690
:1003C000E9024261747465727900009E06000000C3
:1003D000085536D302546865726D616C00001308CD
:1003E000000000085536AD024C45440000000000F6
:1003F00000B6040000080A4A3400000000000000B3
:1004000000000000000000000000000069035465C7
:10041000726D696E616C00C10D000000088036537A
:100420000352656D6F7465000000820500000E08C0
:1004300064362D034E6F746573000000006A0BB8BC
:100440000204096036000000000000000000000007
:100450000000000000000000090900FEFAFFFAFF9A
:10046000F8FEF8FCF8FCF8FCF8FC00FC00010001C8
:100470000001000100010001000100010001580419
:1004800041707073000000000072100C04081060CE
:100490002258045379730000000000007210AD036D
:1004A000200840368703526561646D650000006A6C
:1004B0000B0000040960360000000000000000008E
:1004C00000000000000000000000F90441726475A3
:1004D000626F79000072107E04000860224172642D
:1004E00075626F790057656C636F6D6520746F205E
:1004F00041726475626F792E00090B00FFFEFF6286
:10050000FF22FF62FFE2FF62FFFEFF00FF00070322
:100510000703070207030703070307030700070092
:10052000004908B400BEF67B7AA59455B848002966
:1005300044442A15A00B420050030200082590767F
:10054000BA595CC59EC53892E6F33A73BAE590771E
:10055000BA773A084008502A441CE08852E5085609
:100560008E77B677B8728CD6BA739E739272AEB726
:10057000B6E95C64AAB7B4929CBEB6D6B656AAD702
:100580009276EE77B47138E948B6AEB6AAB6F6B54B
:10059000B4B548E59C694C9124642E5400001C4479
:1005A000000EAE9ABA0E8C2EAE0ECE56D0553B93A0
:1005B000B44144415197B4494417B61AB60AAAD671
:1005C000D3766717900F389A8C16AE16BA16F615B2
:1005D000B4B52B1C5E6B4C4948C95A540056E246D0
:1005E000696C65000000000000000000004C6F61B5
:1005F0006400000000000000000800536176650000
:1006000000000000000000010044756D70204545A9
:1006100050524F4D000400436C6F736500000000A2
:100620000000000200456469740000000000000042
:10063000000000436C6561720000000000000020B3
:10064000005365742062617564000000004000532F
:1006500070656369616C00000000000000436C6F0E
:10066000736520616C6C0000000002526573746158
:100670007274000000000000010000000000000093
:100680000000000000000071776572747975696F71
:10069000700A6173646667686A6B6C0A077A7863CC
:1006A00076626E6D080A0B2C20202020202E0D0073
:1006B00051574552545955494F500A4153444647A2
:1006C000484A4B4C0A075A584356424E4D080A0BAB
:1006D0002C20202020202E0D000706001E001100D7
:1006E0000F0000002C002A001E0706001E00050057
:1006F0001E00000032002A002631323334353637EE
:100700003839300A21222324255E262A28290A5B2B
:100710005D3B27232D2B3D5F080A0B5C7C202020AE
:10072000202F0D0008070008081C1C3E2A7F367F7A
:100730002A7F3E7F003E08070018081C0C7E3E7F83
:100740003E7F0C7E081C001806060008001C002ACC
:1007500000080008000F00000000000000002A2B25
:100760002800000000000000000000000000000061
:100770000000000000002C9EB4A0A1A2A434A6A7F3
:10078000A5AE362D3738271E1F20212223242526EB
:10079000B333B62EB7B89F8485868788898A8B8CB9
:1007A0008D8E8F909192939495969798999A9B9C01
:1007B0009D2F3130A3AD350405060708090A0B0C3F
:1007C0000D0E0F101112131415161718191A1B1CE1
:1007D0001DAFB1B0B500080B000202020100090410
:1007E000000001020200000524001001052401019F
:1007F00001042402060524060001070581031000F8
:100800004009040100020A0000000705020240003E
:1008100000070583024000000403090412010002DE
:10082000EF020140412336800001010203014172C1
:100830006475696E6F204C4C430041726475626F41
:100840007900090B9EFF5EFFC2FFFAFFFAFFFAFF75
:10085000C2FF5EFF9EFF070707070607050703079E
:100860000507060707070707090BCFFFD7FF1BFF81
:10087000FDFFFEFFFDFF1BFFD7FFCFFF03070307B1
:100880000207020702070207020703070307050121
:100890000902A1010901A100850105091901290326
:1008A00015002501950375018102950175058103E8
:1008B00005010930093109381581257F750895032F
:1008C0008106C0C005010906A1018502050719E0DE
:1008D00029E7150025017501950881029501750824
:1008E00081039506750815002573050719002973FE
:1008F0008100C0080CFFFF02FE04FC08F890F0A085
:10090000E0C0C080800303020301010607090F0E47
:100910000E00000000005F3511241FBECFEFDAE0AB
:10092000DEBFCDBF11E0A0E0B1E0E4E7FDE602C02C
:1009300005900D92A435B107D9F729E0A4E5B1E0FF
:1009400001C01D92A83CB207E1F714E0CCE8D4E066
:1009500004C02197FE010E94AD36CB38D107C9F7FC
:100960000E94D9300C94B8360C9400006F927F929C
:100970008F929F92AF92BF92CF92EF92FF920F937E
:100980001F93CF93DF9300D01F92CDB7DEB75C01EA
:10099000F62EFC018484912CFFE18F1A910886EEDB
:1009A00091E09A838983992493949B822CE030E090
:1009B00042E050E0BE016F5F7F4FC5010E94FB2CFB
:1009C000CC24CA94E12C02EA12E0282D4CE050E03D
:1009D0006AE170E0C5010E94732880EE91E09A837D
:1009E00089839B8225E130E042E050E0BE016F5FE9
:1009F0007F4FC5010E94FB2C01EA12E0282D45E142
:100A000050E06AE170E0C5010E9473288BED91E02F
:100A10009A8389839B822EE130E042E050E0BE0160
:100A20006F5F7F4FC5010E94FB2C00EA12E0282D6A
:100A30004EE150E06AE170E0C5010E947328F501C3
:100A400084852BEA829F212D1124269530E02A509F
:100A5000310987ED91E0A1E007E210E0AC016A2FD7
:100A6000C5010E94ED2A882331F01092A002109255
:100A7000A1021092A202F501848590ED692E91E009
:100A8000792E8824839490E0880F991F63E070E0AA
:100A90000E9499369B012F50310907E210E0682D22
:100AA000A301C5010E94ED2A882339F08FEF8093BE
:100AB000A0028093A1028093A202F5E0FF1211C070
:100AC0002091A0028091A1029091A20233E834BD4E
:100AD000809587BD81EF809380002093880090935C
:100AE0008A000F900F900F90DF91CF911F910F917F
:100AF000FF90EF90CF90BF90AF909F908F907F909E
:100B00006F900895AF92BF92CF92EF92FF920F93A2
:100B10001F93CF93DF9300D01F92CDB7DEB75C0158
:100B2000F62E8091A3028823B9F088E892E09A8398
:100B3000898381E08B832CE030E045E050E0BE010A
:100B40006F5F7F4FC5010E94FB2C8091AF02811126
:100B5000C6C01092A302B2C08091C009882399F048
:100B600083E792E09A83898311E01B8326E130E0DA
:100B700045E050E0BE016F5F7F4FC5010E94FB2C36
:100B800081E692E016C08091B102882301F18AE4E7
:100B900092E09A83898311E01B8326E130E045E0EF
:100BA00050E0BE016F5F7F4FC5010E94FB2C87E3C1
:100BB00092E09A8389831B832DE130E045E050E089
:100BC000BE016F5F7F4FC5010E94FB2C77C080E2A2
:100BD00092E0A1E00AE010E023E030E0AC016A2FEF
:100BE000C5010E94ED2A882391F0F5012485269500
:100BF00080E490E0821B91099187808788E090E0F3
:100C00009387828781E08093A3020E9406168CE07E
:100C100092E0A1E006E110E023E030E0AC016A2FB1
:100C2000C5010E94ED2A882339F08091C009811105
:100C300003C081E08093C00980E092E09A838983B9
:100C400081E08B8322E230E043E050E0BE016F5F41
:100C50007F4FC5010E94FB2CF501248525538AE0B6
:100C6000C82EEE24E3940CE719E043E250E062E37F
:100C700070E0C5010E9473288AEE91E0A1E00AE2CB
:100C800010E023E030E0AC016A2FC5010E94ED2A9C
:100C9000882319F081E00E944D15F7E0FF1211C082
:100CA0008091A30281111092A3028091C009811149
:100CB0001092C00980E00E944D1533C087E0F816FD
:100CC000A1F389E0F81211C08091A302882349F1B1
:100CD000609149048BED98E00E94222322C0F7E046
:100CE000FF1609F3E9E0FE1699F3E5E0FE1219C0DC
:100CF0008091B1028823A9F00E94C31580738033CC
:100D000071F48091A4028F5F8093A402803849F42B
:100D100080E00E944D15C5010E94E92402C0109296
:100D2000A4020F900F900F90DF91CF911F910F9120
:100D3000FF90EF90CF90BF90AF9008952F923F9289
:100D40004F925F926F927F928F929F92AF92BF92DB
:100D5000CF92DF92EF92FF920F931F93CF93DF9387
:100D6000CDB7DEB727970FB6F894DEBF0FBECDBF65
:100D70003C01613009F0F6C0DC0118960D911C9120
:100D80001997065F1F4F1A964D905C901B97BAE01B
:100D90004B0E511CFC01848590E05C01FDE0AF1A14
:100DA000B108D3011D962C90312CB5E12B1A3108D6
:100DB00021E0220D41E04A0DB201C8010E94592EE6
:100DC0003FE5C32E32E0D32EE12CF12C420C531C14
:100DD0004CE2842E99249394C7016FE070E00E9446
:100DE0009936FB01E00FF11FFD83EC83D601ED91F5
:100DF000FD916D01EA0CFB1CC7016FE070E00E94E1
:100E00009936CB01800F911F9F838E83D6012D9140
:100E10003C913097A9F0CF016AE070E00E948536DE
:100E2000685C7109629DC001639D900D729D900D7B
:100E30001124B4010E948536F201E61BF70B01C0B4
:100E4000F20121153105A9F0C9016AE070E00E94A4
:100E50008536685C7109629DC001639D900D729D2D
:100E6000900D1124B4010E9485369201261B370B88
:100E700001C092014E815F81BF018C819D810E94E2
:100E8000892EEDE7F2E0EC15FD0509F0A5CF00E0B5
:100E900010E0E12CF12C8DEF882E99249A9493E0A8
:100EA000A92EB12C24E6C22ED12CD30118968D91F7
:100EB0009C91199702969093860480938504C701AC
:100EC000B4010E949936640D751D7093840460937B
:100ED0008304C801B5010E948536CB0188539F4F1A
:100EE000B6010E949936CB010E94CF2BE20CF31C75
:100EF000045D1E4F003BB4E01B07B9F600917D0274
:100F000010917E02F3018485869560857185680F56
:100F1000711D68517109858542855385480F511DA2
:100F20004850510988EB91E09A83898381E08B8353
:100F300020E0CE0101960E94E914C80168EE73E03A
:100F40000E9485368C01CB010E94CF2B60E08EE29F
:100F50000E940613C8010E94CF2B60E086E50E9424
:100F6000061338C06530B1F580915E0281112FC043
:100F70008EE50E9477159C0140E050E060E070E350
:100F800081E190E00E944436EFE5F2E08DE792E0E7
:100F900042815381419351938E179F07C9F7203D9A
:100FA000F7E03F0738F0293883E1380728F028E8D0
:100FB00033E102C020ED37E030937E0220937D02C2
:100FC0008CE380935E02C3010E94E92403C0815038
:100FD00080935E0260E270E0C3010E94882988234A
:100FE00049F0EFE5F2E08FE792E0119211928E174F
:100FF0009F07D9F727960FB6F894DEBF0FBECDBF77
:10100000DF91CF911F910F91FF90EF90DF90CF90E4
:10101000BF90AF909F908F907F906F905F904F9018
:101020003F902F9008952F923F924F925F926F9230
:101030007F928F929F92AF92BF92CF92DF92EF9268
:10104000FF920F931F93CF93DF93CDB7DEB729970E
:101050000FB6F894DEBF0FBECDBF8C01613009F032
:10106000DCC0DC011896ED90FC901997BAE0EB0E0D
:10107000F11CFC0162847384FAE06F0E711CDC01C8
:101080001C968C911C9790E0FC013D97FD83EC83AE
:101090001D964C90512CF5E14F1A510821E0240D7A
:1010A0004E2F4F5FB301C7010E94592E20E8A22E98
:1010B00022E0B22EC12CD12C3FE0232E312C640C27
:1010C000751C4EEC842E99249A94C601B1010E949D
:1010D0009936FB01EE0DFF1DFF83EE83D501ED91E7
:1010E000FD915D012C813D81C20ED31EC601B1016F
:1010F0000E949936CB018E0D9F1D99878887D50157
:101100002D913C91309771F04E9EC0014F9E900DF5
:101110005E9E900D1124B4010E949936FB01E60DEC
:10112000F71D01C0F3012115310571F0429EC00188
:10113000439E900D529E900D1124B4010E94993649
:101140009B01260D371D01C0930148855985BF01BC
:101150008E819F810E94892EBEE9AB16B2E0BB064C
:1011600009F0B3CFE12CF12CC12CD12C8DEF882EBE
:1011700099249A9493E0A92EB12CF8018085918549
:1011800002969093860480938504C601B4010E9460
:101190009936660D771D7093840460938304C701AC
:1011A000B5010E949936CB010E94CF2BC40CD51CEF
:1011B000F2E3EF0EF11C28ECE216F104F1F6D8018F
:1011C0001C968C911C97869518966D917C91199719
:1011D000680F711D685171091D968C911D971A96A3
:1011E0004D915C911B97480F511D4850510982EC5D
:1011F00091E09A83898381E08B8320E0CE01019680
:101200000E94E91480919E0290919F020E94CF2B30
:1012100060E083E40E9406132DC0653059F580918B
:101220007F02811124C0E0E8F2E082819381819302
:101230009193B2E0EE39FB07C1F787EC0E94771576
:101240008851914097FD06C0833391052CF082E3CD
:1012500090E002C080E090E090939F0280939E0215
:101260008CE380937F02C8010E94E92403C081506F
:1012700080937F0260E270E0C8010E948829882381
:1012800049F0E0E8F2E080EA92E0119211928E17C4
:101290009F07D9F729960FB6F894DEBF0FBECDBFD2
:1012A000DF91CF911F910F91FF90EF90DF90CF9042
:1012B000BF90AF909F908F907F906F905F904F9076
:1012C0003F902F9008952F923F924F925F926F928E
:1012D0007F928F929F92AF92BF92CF92DF92EF92C6
:1012E000FF920F931F93CF93DF93CDB7DEB727976E
:1012F0000FB6F894DEBF0FBECDBF9F838E83162F2F
:10130000DC011A96CD90DC901B9720900301309061
:1013100004013101B1E06B2277244AE750E06CE52B
:1013200072E00E94D3268091A7028F3F61F0E0E136
:101330008E9FC00111248951974F2E813F8128171C
:10134000390709F468C1113009F0C9C0E0905C02A6
:10135000F0905D0283E0EE0CFF1C8A95E1F7369475
:101360002794560139E0A30EB11CC601C3969C8395
:101370008B83C301A1E08A27B82FB170BD832501FB
:10138000EFEF4E1A5E0AAE81BF8118968D909C9049
:101390001997C40102969093860480938504509215
:1013A00084044092830460E08F2D82958F700E94A8
:1013B000E11460E08F2D0E94E11460E0C70104E0B9
:1013C000969587950A95E1F70E94E11460E08E2DCD
:1013D0000E94E1146401B6E1CB0ED11CF401EA587D
:1013E000FF4FFA83E9834701C4010E944B15182F70
:1013F000D0928604C0928504509284044092830463
:1014000028143904B9F400E027E044E0B501C6012E
:101410006114710411F0049601C001970E94A11596
:10142000D0928204C09281045092800440927F0442
:101430006D8101C060E0812F82958F700E94E11460
:101440002814390421F461E06114710409F460E0A6
:10145000812F0E94E114FCE0CF0ED11C2FEF821AE5
:10146000920A89819A81C816D90609F0BDCF98E001
:10147000E90EF11CA7E0AA0EB11CEB81FC81EA1574
:10148000FB0509F07CCFAE81BF811D964C911D9765
:1014900049501A966D917C911B97675F7F4F189604
:1014A0008D919C91199720E0449627960FB6F89459
:1014B000DEBF0FBECDBFDF91CF911F910F91FF9087
:1014C000EF90DF90CF90BF90AF909F908F907F90E4
:1014D0006F905F904F903F902F900C94872A12301E
:1014E00009F057C0E0917009F0E0AE81BF81189615
:1014F0008D919C911997E81BF90BCF0145978F357A
:10150000910508F0CEC02091720930E01A968D91B5
:101510009C911B97281B390B2A5031092A3231051F
:1015200008F0BFC0CF0144976CE070E00E9499368C
:101530007B0160915C0270915D02A3E0660F771FF2
:10154000AA95E1F76B01CE0CDF1CC90167E070E0E2
:101550000E949936B3E0660F771FBA95E1F76C0DDC
:101560007D1D660F771F8CE08E9D90018F9D300D45
:101570001124265E3F4F81E090E02E173F0714F0C4
:1015800080E090E0680F791F70930401609303017D
:1015900026C0193009F085C08091490410ED180F5C
:1015A0001A3008F43FC09FE9980F963010F419EAFA
:1015B00006C09FEB980F963008F073C019EC180F17
:1015C00031C0A90163E0440F551F6A95E1F7841704
:1015D000950708F461C030935D0220935C028E8110
:1015E0009F8127960FB6F894DEBF0FBECDBFDF9167
:1015F000CF911F910F91FF90EF90DF90CF90BF9010
:10160000AF909F908F907F906F905F904F903F90A2
:101610002F900C94E92484EA91E090930701809341
:10162000060191CE36942794C1010E944B1567287C
:1016300021F0682F607F612B06C08F70B0E11B9F87
:10164000B0011124682BC1010E94BD2380910301C8
:10165000909104018115E8E09E0708F601969093A9
:101660000401809303019695879520915C02309147
:101670005D02A9014A5F5F4FE3E0440F551FEA9501
:10168000E1F7B9016F5F7F4F8417950708F499CF91
:10169000485F5F4F9B01F5CF2150310948505109F8
:1016A00096CF27960FB6F894DEBF0FBECDBFDF9161
:1016B000CF911F910F91FF90EF90DF90CF90BF904F
:1016C000AF909F908F907F906F905F904F903F90E2
:1016D0002F9008952F923F924F925F926F927F9238
:1016E0008F929F92AF92CF92DF92EF92FF920F93E1
:1016F0001F93CF93DF93CDB7DEB727970FB6F8943C
:10170000DEBF0FBECDBF4C01162FFC01C180D280C1
:10171000F8EBCF16F2E0DF0659F082EE90E09A8304
:10172000898381E08B83BAE54B2EB2E05B2E07C044
:10173000DA82C9821B82A8E54A2EA2E05A2EF40161
:10174000248530E03901FCE06F1A7108F4018585C9
:1017500090E0AC014C5051095D834C83CA0167E0B5
:1017600070E00E9499367F836E83130177FE04C078
:10177000190159E0251A3108359427943594279496
:10178000B101CE0101960E944811EE81FF81E81758
:10179000F90724F4AC014E1B5F0B02C040E050E09F
:1017A000B201C4010E94D3261130D9F5F201E080C4
:1017B000F180F4014285538560857185F8EBCF1681
:1017C000F2E0DF0679F0455F5F4F6E5F7F4FA12C3F
:1017D000CC24CA94DC2C0C81262DCE0101960E94CB
:1017E000402DB7C18091A7028F3F59F020E1829F21
:1017F000C00111248951974FAA24A39488169906F1
:1018000009F0A12CC0900101D0900201455F5F4F0B
:101810006E5F7F4F0C81262DCE0101960E94402DD8
:1018200006C038EBC31632E0D30609F092C180E15E
:1018300090E00E944B15843501F161E070E0C40135
:101840000E948829882309F447C064E580E190E07C
:101850000E94BD236FE481E190E00E94BD2363E517
:1018600082E190E00E94BD2368E483E190E00E9461
:10187000BD2334E1E32EF12C13C081E190E00E94FE
:101880004B158F34D1F682E190E00E944B158335E1
:10189000A1F683E190E00E944B15883471F639C1BE
:1018A000670134E1C31AD108CE0101960E943111BB
:1018B000C816D9066CF4B601CE0101960E949311A8
:1018C000682FC7010E94BD234FEFE41AF40AE8CF46
:1018D00060E0C7010E94BD2360E270E0C4010E9485
:1018E0008829811110C0CE0101960E9431112091EA
:1018F0000101309102018217930768F4909302016D
:101900008093010108C0E8EBF2E0119254E0E83462
:10191000F507D9F7E8CF193009F07EC010914904D6
:10192000183009F50091010110910201011511050E
:10193000F1F1015011097801CE0101960E94311197
:101940009C01E216F30654F4E981FA81EE0DFF1DC5
:10195000918190838FEFE81AF80AF3CF1093020178
:101960000093010124C0CE0101960E9431118039FB
:10197000E1E09E07E4F440910101509102012981C8
:101980003A81481759074CF4D901A80FB91FFD0136
:10199000319760816C930197F2CFF901E40FF51F45
:1019A00010834F5F5F4F5093020140930101CE01BE
:1019B00001960E9431117C0180E090E000E010E08F
:1019C0008E159F0584F4A101BC01CE0101960E94F1
:1019D0002A1C20910101309102012817390718F0C3
:1019E0000F5F1F4FEDCFF20120813181C8014E8181
:1019F0005F81841B950B8217930720F001969183DA
:101A0000808306C00217130718F4F20111830083C4
:101A1000C4010E94E9249DC0123009F09AC0E090F0
:101A20007009F12CF40180859185E81AF90AF2E039
:101A3000EF1AF1088091720990E0F4012285338554
:101A4000821B930B0B97F7FC84C097FD82C0E614B2
:101A5000F7040CF07EC02C813D81821793070CF0B7
:101A600078C067E070E00E9499366B01F201408017
:101A70005180CE0101960E9431118C01612C712C94
:101A80006016710674F44114510459F0A101B301B8
:101A9000CE0101960E942A1C3C01F1E04F1A510828
:101AA000EFCFCE0101960E9431118C01412C512CB7
:101AB000601671060CF04DC0A101B301CE01019674
:101AC0000E942A1C4C145D04F9F4F594E794F594F3
:101AD000E7949C0126193709E216F3063CF4E60C5C
:101AE000F71CF0920201E092010192CF081719074A
:101AF00029F410930201009301018ACF019790937A
:101B000002018093010184CF2FEF421A520A3C0157
:101B1000CFCF68E070E0C4010E948829811103C022
:101B2000163009F08ACE48EBC42E42E0D42E54E1A0
:101B3000E52EF12CC7010E944B15F60181936F0130
:101B4000FFEFEF1AFF0A24EAE21621E0F20691F70E
:101B500074CE27960FB6F894DEBF0FBECDBFDF91CF
:101B6000CF911F910F91FF90EF90DF90CF90AF90AA
:101B70009F908F907F906F905F904F903F902F90AD
:101B800008956F927F928F929F92AF92BF92CF9261
:101B9000DF92EF92FF920F931F93CF93DF9300D0CA
:101BA0001F92CDB7DEB74C01162F88E591E09A83DE
:101BB00089831B82F401848590E06C01FFE0CF1AD9
:101BC000D108D7FE04C06C012CE0C21AD108D5940C
:101BD000C794D594C794F401858590E00C9767E08D
:101BE00070E00E9499365B01B601CE0101960E9419
:101BF00048117C0160E270E0C4010E9488298823BA
:101C000059F0E8E5F1E0119222E0E835F207D9F762
:101C1000109257011092560164E070E0C4010E94D6
:101C2000882981110FC060E470E0C4010E948829F6
:101C30008823D1F040E050E06CE17FE082E00E9438
:101C40003C2512C0612C712CC3010E944B15682FDA
:101C50008AE898E00E94801D8FEF681A780A611464
:101C6000E4E07E0689F7DFCFAE14BF041CF4EA1867
:101C7000FB0802C0E12CF12CA70164E571E0C4016E
:101C80000E94D326193039F4609149048AE898E01B
:101C90000E94801DBFC0113059F58091A7028F3F6F
:101CA00059F0F0E18F9FC00111248951974FAA2468
:101CB000A3948816990609F0A12CCE0101960E94E2
:101CC0003111E0905401F0905501F40105850C505C
:101CD00024852F5042855385455F5F4F6085718510
:101CE0006E5F7F4F6C01CE0101960E94402D92C025
:101CF000153009F08FC010E080E2782E8AE898E075
:101D00000E949B1D892B09F467C08AE898E00E9415
:101D1000DB1E682E0091560110915701F8E08F17D5
:101D200019F02FE7821310C01016110614F011E0FD
:101D3000E5CF015011091093570100935601F801A6
:101D4000E85AFE4F1082F3CF81110BC0C8010196F3
:101D50009093570180935601F801E85AFE4F708224
:101D6000E6CF0E3F11055CF4C80101969093570130
:101D700080935601F801E85AFE4F6082D8CFA60141
:101D800060E070E0CE0101960E942A1C081B190B2E
:101D9000FC01E85AFE4FA8E5B1E0CD01885591401D
:101DA000081719071CF081918D93F7CFF801319630
:101DB000F0935701E0935601D801A85ABE4F6C9298
:101DC000E85AFE4FCF01885591408F3F910511F0A1
:101DD0000CF0ADCF1192F6CF1123E1F0E114F10434
:101DE00039F08091540190915501E816F90679F483
:101DF000B601CE0101960E944811A816B9061CF43E
:101E00007C01EA18FB08F0925501E0925401C401EC
:101E10000E94E9240F900F900F90DF91CF911F91B6
:101E20000F91FF90EF90DF90CF90BF90AF909F9079
:101E30008F907F906F900895AF92BF92CF92DF9274
:101E4000EF92FF920F931F93CF93DF9300D01F92D7
:101E5000CDB7DEB77C0180E6F701848780E3858714
:101E600080E190E09187808788E090E09387828787
:101E700087ED90E09A83898381E08B8326E030E0D0
:101E800046E050E0BE016F5F7F4FC7010E94FB2C10
:101E90008BE1C82E81E0D82EB12C0EE010E09BE043
:101EA000A92EF70120853185C901069662857385C3
:101EB000600F711F40916809413061F42091000169
:101EC0002B1103C04AEB50E002C04CEA50E00E94E4
:101ED000272C1FC04230E9F44091700950E04817A8
:101EE0005907BCF08091720990E0861797078CF033
:101EF0002A5D3F4F2417350764F06A5F7F4F6817EC
:101F000079073CF0B0920001C7010E94E924A09239
:101F10006809809168098130B1F4F601808191816E
:101F2000F70122853385408551854E5E5F4F509382
:101F3000860440938504200F311F3093840420933E
:101F400083040E94CF2B095F1F4FF2E0CF0ED11CFC
:101F5000B3940A32110509F0A4CFF701058510E00A
:101F60000B511109248530E0245231098FEC90E0A7
:101F7000A1E0AC016A2FC7010E94ED2A882359F025
:101F800081E0809300010E947C2A8FEF9FEF909365
:101F9000970880939608F701058510E00051110914
:101FA000248530E02452310988EC90E0A1E0AC01B6
:101FB0006A2FC7010E94ED2A882359F00E947C2ACB
:101FC0008FEF9FEF9093970880939608C7010E9428
:101FD0007E250F900F900F90DF91CF911F910F9161
:101FE000FF90EF90DF90CF90BF90AF900895CF9388
:101FF000DF93EC019C01235F3F4FF90185919491A0
:10200000892BA9F0F90145915491E7EEF8E080E0C1
:1020100090E06081662329F061817281461757073D
:10202000B1F0019670968830910599F721C0FE01B4
:102030003B9645915491E7EEF8E080E090E06081B6
:10204000662389F0638174814617570761F444E081
:10205000880F991F4A95E1F78951974F009741F0F2
:102060000E9410253AC0019670968830910539F784
:10207000F90145915491FE013B966591749183E07D
:102080000E943C25DC01892B41F1CE010296169677
:102090009C938E93159781E017968C931797FE016A
:1020A0003F96E491F0E01996FC93EE931897FE01A9
:1020B0007096E491F0E01B96FC93EE931A97FE0164
:1020C0007196E4911C96EC931C97FE017296E49134
:1020D0001D96EC931D97CD0102C080E090E0DF914A
:1020E000CF9108957F928F929F92AF92BF92CF929D
:1020F000DF92EF92FF920F931F93CF93DF9300D065
:102100001F92CDB7DEB74C01FC01E180F2809AE06E
:10211000A92EB12C2EE0C22ED12C77247394F70176
:1021200085919491892B09F43BC0C70102969A834B
:1021300089837B82F7016591749185019601AE01D7
:102140004F5F5F4FC4010E94A8298823B1F0C701E7
:102150000E94F70F8C01009781F00E94FE24898372
:10216000BE016F5F7F4F85E00E94241685E08C0DD5
:10217000F801868785E08A0D8787FEE1CF0ED11CA6
:10218000F401848590E0C816D90634F0F6E1AF0E6C
:10219000B11C8EE0C82ED12C83E1E80EF11CBFCF1C
:1021A0000F900F900F90DF91CF911F910F91FF90A3
:1021B000EF90DF90CF90BF90AF909F908F907F90E7
:1021C0000895EF92FF920F931F93CF93DF9300D068
:1021D0001F92CDB7DEB77C0162E070E00E948829D3
:1021E0008DED94E09A83898381E08B830AE010E08F
:1021F0002CE630E0AE014F5F5F4F69EF74E0C7013E
:102200000E94A8298823A9F08AEC94E00E94F70F85
:102210008C01009771F00E94FE248983BE016F5FDC
:102220007F4F85E00E94241681E7F80186878FE0C2
:1022300087870F900F900F90DF91CF911F910F9193
:10224000FF90EF900895DC0112962C911297ED917A
:10225000FC91E60FF71F213011F4849108958081DD
:102260000895FC01A081B181109779F082818130BD
:1022700019F4CD010C942536FD0101900020E9F7F9
:102280003197CF018A1B9B0B089580E090E0089561
:102290006F927F928F929F92AF92BF92CF92DF9276
:1022A000EF92FF920F931F93CF93DF934C013B016B
:1022B0000E9431117C0100E010E0C0E0D0E06C0130
:1022C00081E0C81AD1080E151F05ECF45E018FEFEE
:1022D000A81AB80AA301B801C4010E942A1C8C01E3
:1022E000E816F90671F4B601C4010E9423118A3080
:1022F00031F0B601C4010E9423118D3011F42296F1
:10230000E2CFE501E0CFCE01DF91CF911F910F9198
:10231000FF90EF90DF90CF90BF90AF909F908F9005
:102320007F906F9008950F931F93CF93DF9377FD66
:102330000FC0EB018C010E943111C817D90744F47A
:10234000BE01C801DF91CF911F910F910C94231111
:1023500080E0DF91CF911F910F910895CF93DF938C
:1023600000D01F92CDB7DEB79A83898381E08B833B
:10237000CE0101960E94311121E0892B09F020E065
:10238000822F0F900F900F90DF91CF9108950C96B0
:10239000FC012591349181E0232B09F080E0089520
:1023A0000F931F93CF93DF93EC018B010E94C71112
:1023B000882361F02E96CE010E94C711811117C0AB
:1023C000CE010E94AE11811112C00AC02C96FE01EE
:1023D000859194910823192381E0012B49F407C0CA
:1023E000B801CE010E94D011882321F301C080E002
:1023F000DF91CF911F910F910895EF92FF920F936C
:102400001F93CF93DF937B01EC012E9600E010E049
:10241000CE010E94C71181110FC0CE010E94AE11E2
:1024200081110AC0B701CE010E94D011882311F09A
:102430000F5F1F4F2E96ECCFC801DF91CF911F91F8
:102440000F91FF90EF9008950F931F93CF93DF9319
:1024500061157105D1F06817790711F481E016C094
:102460008B01EC010E94C711882379F02E96CE01D2
:102470000E94C711811109C0CE010E94AE118111C5
:1024800004C00C171D0791F7E9CF80E0DF91CF91D1
:102490001F910F9108954F925F926F927F928F924A
:1024A0009F92AF92BF92CF92DF92EF92FF920F93E3
:1024B0001F93CF93DF9300D01F92CDB7DEB70E945A
:1024C000EC234C010FED15E09AE0C92ED12C5524D8
:1024D000539427E0422E37E0632E712CC8010E94EE
:1024E000AE11811135C0C8010E94C711882369F15E
:1024F000B401C8010E94D011882339F11A830983DD
:102500005B82CE0101960E94311101965C01AA0CFA
:10251000BB1CAA0CBB1C8091700990E08C159D051A
:1025200034F096012A0D3B1D82179307A4F06091A9
:10253000770470917804C8010E942412811110C0A0
:1025400086E0A80EB11CCA0CDB1C025F1F4FC6CF71
:1025500080E090E047C080917209883040F741C028
:10256000C8010E94C711882331F0B401C8010E943C
:10257000FD119C0102C020E030E08091700990E0E4
:102580008C159D05ECF2A6014D5C5F4F481759076D
:10259000BCF280917209893098F290E0429EA001CD
:1025A000439E500D1124465F5F4F8417950744F6F4
:1025B0000897B3010E9499367B01621773078CF468
:1025C000F7FCBECF025F1F4FB401C8010E94D011BB
:1025D0008823B1F3E114F10421F081E0E81AF10855
:1025E000EFCFC8010F900F900F90DF91CF911F9107
:1025F0000F91FF90EF90DF90CF90BF90AF909F90A2
:102600008F907F906F905F904F9008952F923F92A0
:102610004F925F926F927F928F929F92AF92BF92F2
:10262000CF92DF92EF92FF920F931F93CF93DF939E
:10263000CDB7DEB729970FB6F894DEBF0FBECDBF7A
:102640008052813608F0A4C16887282F30E0220F1D
:10265000331FF901E15EFA4F9491F901E05EFA4F00
:10266000249129870091830410918404A8014F5F6D
:102670005F4F4A012091850430918604592F507490
:10268000252E892F8072382EA8014E5F5F4F5A0188
:10269000592F5071452E892F8870582E492F44701C
:1026A000642EA8014D5F5F4F6A01592F5270752E3D
:1026B000892F81708983498542704A83A8014C5FC4
:1026C0005F4F7A01598550745B83898580728C8352
:1026D000498540714D83598558705E838985847022
:1026E0008F83498540FFA6C097FF05C0462FB401E0
:1026F000C9010E94D123222049F080918504909144
:1027000086044885B40101960E94D123332049F004
:1027100080918504909186044885B40102960E94B8
:10272000D123442041F04885B501809185049091E2
:1027300086040E94D123552049F080918504909110
:1027400086044885B50101960E94D123662049F090
:1027500080918504909186044885B50102960E9477
:10276000D123772041F04885B6018091850490916E
:1027700086040E94D1235981552349F08091850414
:10278000909186044885B60101960E94D1238A81E2
:10279000882349F080918504909186044885B6018C
:1027A00002960E94D123298527FF08C04885B701DA
:1027B00080918504909186040E94D1233B8133232C
:1027C00049F080918504909186044885B70101966F
:1027D0000E94D1234C81442349F08091850490913B
:1027E00086044885B70102960E94D1230B5F1F4FD4
:1027F0005D81552341F04885B80180918504909111
:1028000086040E94D1238E81882349F0809185041B
:10281000909186044885B80101960E94D1232F81AA
:10282000222309F4ACC080918504909186044885E8
:10283000B801A2C097FF05C04885B801C9010E9430
:10284000D123222049F08091850490918604488507
:10285000B80101960E94D123332049F0809185046C
:10286000909186044885B80102960E94D1234420A5
:1028700041F04885B40180918504909186040E94BE
:10288000D123552049F08091850490918604488594
:10289000B40101960E94D123662049F080918504FD
:1028A000909186044885B40102960E94D123772036
:1028B00041F04885B50180918504909186040E947D
:1028C000D1233981332349F0809185049091860486
:1028D0004885B50101960E94D1234A81442349F0DD
:1028E00080918504909186044885B50102960E94E6
:1028F000D123598557FF08C04885B60180918504CA
:10290000909186040E94D1238B81882349F0809185
:102910008504909186044885B60101960E94D123D2
:102920002C81222349F0809185049091860448856A
:10293000B60102960E94D1233D81332341F04885A0
:10294000B70180918504909186040E94D1234E8125
:10295000442349F080918504909186044885B7010D
:1029600001960E94D1235F81552349F0809185040F
:10297000909186044885B70102960E94D1238091E8
:102980008504909186040496909386048093850430
:1029900029960FB6F894DEBF0FBECDBFDF91CF9161
:1029A0001F910F91FF90EF90DF90CF90BF90AF906D
:1029B0009F908F907F906F905F904F903F902F905F
:1029C00008958F708A3010F4805D01C0895C0C948A
:1029D0000613EF92FF921F93CF93DF937C01122F88
:1029E0007093860460938504509384044093830419
:1029F00060E070E0EB012196C7010E9493118823EB
:102A000029F0612F0E940613BE01F4CFDF91CF9110
:102A10001F91FF90EF900895EF92FF921F93CF9335
:102A2000DF9300D01F92CDB7DEB77C01162F613047
:102A3000B1F449EF54E06AE170E081E190E00E9476
:102A4000272C85EE94E09A8389831B8320E04DE157
:102A500050E06FE170E0CE0101960E94E914809190
:102A60006E09813478F0C7010E947E2540E050E075
:102A700061EE70E181E00E943C25FC011386128624
:102A8000118610860F900F900F90DF91CF911F91BC
:102A9000FF90EF9008950C942E36CF939091B10251
:102AA000981719F1C82F81111EC068ED8BED98E0C1
:102AB0000E94D72267ED8BED98E00E94D7226AED45
:102AC0008BED98E00E94D72269ED8BED98E00E9493
:102AD000D72260E88BED98E00E94D72260EB8BED67
:102AE00098E00E94D722C093B102CF9108959091AF
:102AF00064009E7F9093640080937C00873C11F477
:102B000080E203C080917B008F7D80937B0062E038
:102B100070E080E090E00E94553080917A008064FF
:102B200080937A0080917A0086FDFCCF2091780016
:102B30003091790090916400916090936400C90194
:102B40000895CF92DF92EF92FF920F931F93CF934E
:102B5000DF937B01122FEC016C01C40ED11CCC154C
:102B6000DD0544F4202F412FB701CE010E94872AB2
:102B70002196F5CFDF91CF911F910F91FF90EF90AC
:102B8000DF90CF900895CF930E94B52383FF02C0BA
:102B9000C0E101C0C0E00E94B52382FDC0620E9476
:102BA000B52387FDC4600E94B52384FDC8600E94E0
:102BB000B52385FDC1600E94B52386FDC2608C2FC0
:102BC000CF9108959C0180E090E0F901E80FF91F92
:102BD0004491442329F0E491EA3011F00196F5CFB5
:102BE0000895CF93C09189040E94FE249C2FCF9119
:102BF0000895FC019081DB018C91981305C081E060
:102C0000218111969C91291380E00895CF9387E844
:102C100096E09093070180930601C1E0C093AF0254
:102C20000E94C31580936709C0930501CF91089551
:102C300090916909981307C0109269098FEF8093EA
:102C40006C0980936D0908959091690991110BC0E9
:102C500080936909FB018081918190936D09809334
:102C60006C0910926E090895FF920F931F93CF93F2
:102C7000DF9300D0CDB7DEB78C01F62EDC018C914E
:102C80008330D9F5B2E06B132EC0F801228533856D
:102C90008091720990E0A901495F5F4F4817590779
:102CA00014F1281739070CF07BC02091700930E02F
:102CB00080859185AC014B5F5F4F421753070CF045
:102CC0006FC00996821793070CF46AC0C8010E946E
:102CD000FE248983BE016F5F7F4F82E00E9424162D
:102CE000C8010E94E92462E070E0C8010E948829BE
:102CF000882319F0C8010E947E25809169098330DC
:102D0000B9F5F4E0FF122DC0D8011A968D919C916F
:102D10001B9720917A0930917B09280F391F2830A1
:102D2000310544F428E030E0281B390B30937B094F
:102D300020937A09F80140855185209178093091D6
:102D40007909240F351F3187208720917A09309126
:102D50007B09820F931F9387828781E0809305010F
:102D600012C0F3E0FF120FC083E00E9418160BC0E0
:102D7000823049F483E0F81206C082E00E941816FF
:102D8000C8010E947E2510928904D8011396ED9106
:102D9000FC911497309779F06F2DC80109950BC0FD
:102DA000C8010E94FE248983BE016F5F7F4F83E0CC
:102DB0000E94241698CF0F900F90DF91CF911F9112
:102DC0000F91FF9008952F923F924F925F926F92D2
:102DD0007F928F929F92AF92BF92CF92DF92EF92AB
:102DE000FF920F931F93CF93DF93CDB7DEB72B974F
:102DF0000FB6F894DEBF0FBECDBF182F80936809C1
:102E0000853099F407EE18E0F8018081882321F0DD
:102E100065E0C8010E943416005F1F4FF9E00736D5
:102E20001F0791F70E94FC23F6C1813001F50FEADC
:102E300012E057EAE52E52E0F52EF80182918F015B
:102E40008F3F41F0F0E18F9FC00111248951974FCE
:102E50000E94AB25E016F10681F70E94FC230E9438
:102E6000EC236C010FED15E0E12CF12C87C08230D2
:102E700009F057C08091720990E02091700930E00C
:102E8000A7EAB2E04FEAE42E42E0F42E0D910F3FA4
:102E900009F491C140E1049F80011124F801E95136
:102EA000F74F60857185261737078CF0428553856B
:102EB0008417950764F0D4846D0D711D26173707AC
:102EC00034F46585460F511D8417950754F0F801B9
:102ED000E951F74F4081413021F0EA16FB06B1F687
:102EE0006AC10951174F0115110509F464C1E09138
:102EF000A702E83070F480E1E89FF0011124E95165
:102F0000F74F8081823029F4F8018081823009F006
:102F100052C1C8010E94102562E0C8010E94341607
:102F20004AC180916909882371F080916C098F3FB3
:102F300051F0F0E18F9FC0011124612F8951974F0B
:102F40000E943416A9C1E7EAF2E081918F3F51F067
:102F500020E1829FC0011124612F8951974F0E9467
:102F6000341650C132E0EF3AF30779F74BC1C8018C
:102F70000E94C711811108C0025F1F4FC8010E9443
:102F8000AE118823A1F307C0B601C8010E94D01179
:102F900081115CC1F1CFEF2809F43DC10E94EC23FF
:102FA0002C018091AF02882341F0C0907904D09029
:102FB0007A04D194C194D10802C0C12CD12C01E073
:102FC00027E040E8B60180E090E00E94A11520E0F3
:102FD00042E0B60180E090E00E94872A40E0B6011E
:102FE00081E090E00E94D12320E042E0B6018FE72B
:102FF00090E00E94872A40E0B6018EE790E00E94B0
:10300000D12340E8B601695F7F4F80E090E00E94E5
:10301000E72A9FEDE92E95E0F92E2AE0A22EB12CA9
:1030200011E096012F5F3F4F39872887160138E05E
:10303000230E311CC60109969B878A87C7010E940F
:10304000AE118111E8C0C7010E94C711882309F49D
:10305000AEC0B201C7010E94D011882309F4A7C0F5
:103060006091770470917804C7010E942412982E11
:10307000FA82E9821B83CE0101960E9431110196EA
:10308000FC01EE0FFF1FEE0FFF1FFD83EC83992065
:1030900049F000E028E04C81B601C5010E94A1156D
:1030A00021E001C020E0FA82E9821B83488559852E
:1030B000B5016E5F7F4FCE0101960E94E914992001
:1030C00009F470C0C7010E94C711882331F0B20112
:1030D000C7010E94FD113C0102C0612C712CF7E078
:1030E000F69D4001F79D900C112422E0820E911C68
:1030F00001E0282D44E3B101C5010E94A115282D4E
:1031000044E3B101C5010E94592E20E0482D6A8593
:103110007B85C501C4960E94872AB401620D731D88
:1031200044E3C50101960E94E72A46013AE0830E76
:10313000911CC50106969F838E831614170494F57F
:103140009EE0E90EF11CB201C7010E94D011882354
:10315000A1F3E1E06E1A7108609177047091780430
:10316000C7010E942412882371F000E028E044E3A4
:10317000B40162507109C5010E94A115FA82E98269
:103180001B8321E004C0FA82E9821B8320E0A401B2
:103190006E817F81CE0101960E94E914F7E08F0EC7
:1031A000911CCBCF8C819D810696A80EB91E2EE076
:1031B000E20EF11C43CFE091A702E83048F430E181
:1031C000E39FF0011124E951F74F8081823019F11A
:1031D0000E944B129093780480937704892BD9F046
:1031E0008FEF89838A83BE016F5F7F4F88E00E94E3
:1031F000241604C0109378040093770481E0809330
:10320000050109C0183009F047C0E0917704F0913A
:1032100078043097F9F4109268092B960FB6F89459
:10322000DEBF0FBECDBFDF91CF911F910F91FF90F9
:10323000EF90DF90CF90BF90AF909F908F907F9056
:103240006F905F904F903F902F9008954FEFE41A4A
:10325000F40A92CE3C9685919491811541E09407B1
:1032600051F081159240B9F607EE18E037E6E32EEB
:1032700039E0F32E09C0E0E0F0E00995CCCF005F23
:103280001F4FE016F10639F2F80180818330B9F75B
:10329000C8010E947E25F3CF143039F58091690969
:1032A000883009F0B8CF0E944B12209177043091FA
:1032B0007804009789F4C9010E94C7118111ABCF2E
:1032C0000091770410917804C8010E94C711811100
:1032D00091CF0E501109F8CF8217930709F49BCFB5
:1032E000909378048093770489CF133009F093CFBB
:1032F00080916909883009F08ECF0E944B1290931B
:10330000780480937704009721F00E94C7118823E6
:1033100059F088E00E94181681E080930501109210
:1033200078041092770477CF88E00E94E316F1CFFB
:103330002F923F924F925F926F927F928F929F92C5
:10334000AF92BF92CF92DF92EF92FF920F931F93B3
:10335000CF93DF93CDB7DEB72F970FB6F894DEBFCC
:103360000FBECDBF8B870E94C315982E9091AF02E0
:1033700084FF1FC08091670984FD1BC08091B1024A
:10338000811117C08091C009882331F01092C009C3
:1033900081E0809305010DC081E089278093AF0211
:1033A00081110E94061681E08093050190926709C1
:1033B00038C2992309F4EBC1A0900601B09007012F
:1033C000C5010E94E2159C838B839C01E3E0220FE0
:1033D000331FEA95E1F7A9014C5F5F4F5987488792
:1033E000CA0157FD0196959587959195819591090B
:1033F000FC01E05CFF4FFE83ED837C01FEE3EF0EFA
:10340000F11C01E022E248856FE170E0C7010E94F3
:10341000A11522E248856FE170E0C7010E94592E94
:10342000C5010E94E2151C012B813C81281B390B30
:10343000220F331F220F331F4D815E81240F351F52
:103440003F872E8760904B0470904A0490FE0AC01C
:103450008091670980FD06C0662021F08FEF860D00
:1034600080934B0491FE09C08091670981FD05C0DE
:1034700080914B048F5F80934B0492FE0AC0809131
:10348000670982FD06C0772021F08FEF870D8093BA
:103490004A0493FE0BC08091670983FD07C08091A9
:1034A0004A04833018F48F5F80934A041A82812C77
:1034B000198250E2E52EF12C592D50725A87862D33
:1034C00090E09D878C87F5018491882309F42DC1B4
:1034D000149140904A0484100AC080914B0490E0FB
:1034E0008215930524F08FEF820D80934B0450904A
:1034F0004B04F981F51121C084101FC02A852223B5
:10350000E1F000E028E048E0B7018E859F850E9449
:10351000A1151A3009F492C038F4173009F4ACC080
:10352000183009F4B3C0C4C01D3009F4A0C0103273
:1035300079F01B3009F0BCC0AEC01A3009F47EC06F
:1035400008F498C01D3009F492C0103209F0A1C0EF
:10355000C12CD12CF501EC0DFD1DE491E03221F4DC
:103560003FEFC31AD30AF6CF49814C0D4F83C601F2
:1035700043E0880F991F4A95E1F79987888784105F
:1035800043C09981591608F43FC0C601E9818E0FE6
:10359000911D252D30E028173907B4F5871007C095
:1035A0006E1628F02C853D852817390734F0C601A2
:1035B000959587951981180F04C0561428F4198120
:1035C000115010934B0405C0651418F43F813093DB
:1035D0004B044A85442371F000E028E04C2D440F51
:1035E000440F440FB7018E859F850E94A11550E2BC
:1035F0005A8314C048855985B7018E859F850E94DE
:10360000DB2F80E28A830AC028E04C2D440F440F50
:10361000440FB7018E859F850E94592E91E0C91AEB
:10362000D108AC0CBD1CEF81E9832E853F85488510
:103630005985240F351F3F872E8773C0C50101961A
:103640000E94E2151C018B819C8182199309880FCD
:10365000991F880F991FED81FE818E0F9F1F9F87F5
:103660008E87F8E0EF0EF11C839419825AC048E46B
:1036700057E004C0173041F446E357E0B7018E85A8
:103680009F850E94272C37C0183021F544E257E06F
:10369000F5CF1B30F9F48091060190910701895F05
:1036A000964019F449EE56E0E9CF49ED56E0E6CFF1
:1036B0008E859F8502969093860480938504C7012A
:1036C0000196909384048093830461E0812F0E948B
:1036D000061316C08E859F8502969093860480936C
:1036E0008504C7010196909384048093830460E06D
:1036F000812F0E940613398135110AC0841008C039
:1037000048E050E0B7018E859F850E94DB2F1A8329
:103710004E855F85485F5F4F5F874E8759815F5F4A
:1037200059838FEFA81AB80ACECE95FC30C080918D
:10373000670985FF2CC09A819B3089F09D30E9F0A4
:103740009730F9F48091060190910701805B9640D3
:1037500019F487E896E00CC080EB96E009C08091F0
:10376000060190910701895F964099F389EF96E0F1
:1037700090930701809306010AC08AE08093490470
:1037800003C02A812093490489E00E94E3169092A5
:1037900067093B85332309F444C020917B043091B1
:1037A0007C044091790450917A0410927C04109228
:1037B0007B0410927A041092790480917F04909196
:1037C0008004840F951F8A3191052CF049979093BE
:1037D0007A04809379048091810490918204820F0D
:1037E000931F97FD05C08937910534F088579109DB
:1037F00090937C0480937B048091AF02882389F0AE
:103800008091790490917A044817590739F480918E
:103810007B0490917C042817390719F081E080938C
:1038200005012F960FB6F894DEBF0FBECDBFDF9116
:10383000CF911F910F91FF90EF90DF90CF90BF90AD
:10384000AF909F908F907F906F905F904F903F9040
:103850002F9008954F925F926F927F928F929F92D6
:10386000AF92BF92CF92DF92EF92FF920F931F938E
:10387000CF93DF936C013B012A010E9431118C012F
:10388000E301C017D1070CF046C0BE01C6010E947B
:1038900023118A3021F48E010F5F1F4F3CC08D3001
:1038A000D1F39E0126193709241535059CF5803280
:1038B00061F1C6010E9431115C014E017401EC1AE4
:1038C000FD0A8A149B0474F4B401C6010E942311FA
:1038D000803241F08A3031F08D3021F08FEF881A3C
:1038E000980AECCFEC0EFD1EC701861997098415C6
:1038F000950514F4E701C5CFC615D70559F4C40DD5
:10390000D51D8E010150110906C07E018FEFE81A06
:10391000F80AF0CF8E01C801DF91CF911F910F916E
:10392000FF90EF90DF90CF90BF90AF909F908F90DF
:103930007F906F905F904F900895409173045091E5
:103940007404209171043091720442175307B4F447
:103950009091E8009570E1F39091E80092FD19C014
:103960008093F100809173049091740401968F7399
:103970009927892B19F48EEF8093E80080917304C6
:10398000909174040196909374048093730481E081
:10399000089580E00895DF92EF92FF920F931F93B6
:1039A000CF93DF93D82E8A017B01E40EF51EEB0145
:1039B000CE15DF0571F0D7FE03C0FE01849101C072
:1039C00088810E949D1C21968111F2CF8FEF9FEF7D
:1039D00001C0C801DF91CF911F910F91FF90EF902F
:1039E000DF9008952FB7F89487708093E900909145
:1039F000E800892F807295FF04C09091F20080E466
:103A0000891B2FBF0895615030F02091F100FC0117
:103A100020830196F8CF289884E680938704089540
:103A2000CF92DF92EF92FF920F931F93CF93DF938A
:103A30006C017A018B01C0E0D0E0CE15DF0581F08A
:103A4000D8016D918D01D601ED91FC910190F0812D
:103A5000E02DC6010995892B11F02196EECF7E014C
:103A6000C701DF91CF911F910F91FF90EF90DF90F1
:103A7000CF9008958091690481110DC082E08093F8
:103A8000650484E0809366041092680410926704D1
:103A900081E08093690485E694E008950F931F9375
:103AA000CF93DF931F92CDB7DEB782E0898342E4E4
:103AB00050E066ED77E080E80E94CB1C0E943A1D42
:103AC000DC0112960D911C9113970115110589F0D7
:103AD000D801ED91FC910280F381E02DBE016F5F72
:103AE0007F4FC801099597FD04C0F8010085118535
:103AF000ECCF89810F90DF91CF911F910F910895A5
:103B0000CF93DF931F92CDB7DEB76983DC01ED91D0
:103B1000FC910280F381E02D41E050E0BE016F5F37
:103B20007F4F09950F90DF91CF91089583E00E9418
:103B3000F21C90E00895FC018485958597FD0BC0EB
:103B40009FB7F89482E08093E9008091F2009FBFD4
:103B500090E0019608959FB7F89482E08093E90081
:103B60008091F2009FBF90E00895DC01FB01129666
:103B70008C91129790E02481358182179307D1F4BC
:103B800091818081813A31F481E0913091F09330DC
:103B900089F411C0813271F49B3021F482811F9627
:103BA0008C9305C09A3031F4828150968C9381E0D9
:103BB0000895089580E00895DC01FB0188E4808386
:103BC00089E4818384E482831D969C911D979F7074
:103BD0009F5B93831D968D919C911E9724E09695F3
:103BE00087952A95E1F78F708F5B848385E0089530
:103BF000EF92FF920F931F93CF93DF93FB012081EE
:103C0000213851F52381223239F5DC0112962C91AD
:103C100030E04481558142175307F1F4EC010B85E4
:103C20001C85E12CF12C0115110591F0F80144815E
:103C300055816281738180E80E94CB1C8F3FFFEF2A
:103C40009F0769F0E80EF91ED8010D911C91EBCF8A
:103C500081E08F87C70105C080E090E002C08FEF50
:103C60009FEFDF91CF911F910F91FF90EF900895FB
:103C7000CF93DF93CDB7DEB769970FB6F894DEBF69
:103C80000FBECDBFFC01DB018C918F5F8C93BE0119
:103C90006F5F7F4F89E1DB011D928A95E9F729E08B
:103CA000298384E08A8391E09D8383E08E832A8741
:103CB00021E22B879C879D879F8722E2288B27E024
:103CC0002B8B25E02C8B8E8B20E430E0388F2F8BD4
:103CD000998F82818B8395858685998B8A8B838149
:103CE00080688D8B49E150E080E00E94CB1C699692
:103CF0000FB6F894DEBF0FBECDBFDF91CF91089510
:103D0000FC0182818F5BFB01808381E00895CF926B
:103D1000DF92EF92FF920F931F93CF93DF936C018B
:103D2000EB017B01E40EF51E00E010E0CE15DF058F
:103D300081F069916D30D1F3D601ED91FC91019044
:103D4000F081E02DC6010995892B19F00F5F1F4FF7
:103D5000EDCFC801DF91CF911F910F91FF90EF90B0
:103D6000DF90CF9008950E94B3360C947C2A0F9375
:103D70001F93CF93DF931F92CDB7DEB78C01FC0169
:103D80008485958597FF0EC0CE0101960E94122D65
:103D9000019719F4898190E002C08FEF9FEFF8013D
:103DA00095878487F801848595850F90DF91CF9161
:103DB0001F910F910895CF93DF931F92CDB7DEB778
:103DC000FC018485958597FD05C02FEF3FEF358772
:103DD00024870BC0CE0101960E94122D019719F481
:103DE000898190E002C08FEF9FEF0F90DF91CF911C
:103DF00008951F920F920FB60F9211242F933F93A5
:103E00004F935F936F937F938F939F93AF93BF93E2
:103E1000CF93EF93FF93C091E1008091E100837F06
:103E20008093E100C3FF0FC01092E90081E080930E
:103E3000EB001092EC0082E38093ED001092880476
:103E400088E08093F000C2FF18C00E947C2A809115
:103E50007604882339F0809176048150809376042B
:103E6000882389F180918704882339F08091870421
:103E7000815080938704882341F1C4FF10C0809152
:103E8000E2008E7E81608093E2008091E1008F7E6F
:103E90008093E1008091A5028E7E806111C0C0FFF9
:103EA00016C08091E2008E7E80618093E200809156
:103EB000E1008E7E8093E1008091A5028E7E81607C
:103EC0008093A50204C05D9ACDCF289AD6CFFF91EA
:103ED000EF91CF91BF91AF919F918F917F916F9112
:103EE0005F914F913F912F910F900FBE0F901F90B8
:103EF00018951F920F920FB60F921124CF92DF9256
:103F0000EF92FF920F931F932F933F934F935F93E3
:103F10006F937F938F939F93AF93BF93EF93FF9391
:103F2000CF93DF93CDB7DEB76C97DEBFCDBF1092D6
:103F3000E9008091E80083FFFBC168E0CE0145966F
:103F40000E94031D82EF8093E8008D8987FF05C0E2
:103F50009091E80090FFFCCF03C09EEF9093E800A3
:103F6000982F907609F0C6C09E894F89588D2F8969
:103F7000F88C91110CC0803829F48091A6028093AE
:103F8000F10002C01092F1001092F10045C1913091
:103F900051F4811141C14130510509F03DC1809179
:103FA000A6028D7F0BC0933061F4811135C1413081
:103FB000510509F031C18091A60282608093A6026A
:103FC0002BC1953049F48091E80080FFFCCF822F0F
:103FD00080688093E30020C1963009F05EC00B8DAD
:103FE0001C8D22E01092E900109274041092730468
:103FF000F21232C010927204109271040E944E1D8F
:1040000099E0BE016F5F7F4FDB01E92F1D92EA95BA
:10401000E9F79983FA8291E09E8390EA98879AEF74
:1040200099872091730430917404275F3F4F3C833C
:104030002B838D831092E900109274041092730404
:10404000109372040093710449E050E080E00E94F4
:10405000CB1C0E944E1DE0C01093720400937104AB
:104060000E943A1DDC0112960D911C9113970115C7
:10407000110509F4BBC0D801ED91FC910480F581D4
:10408000E02DBE016B5E7F4FC8010995009709F0D6
:10409000C7C0F80100851185EACF973009F445C102
:1040A000983021F481E08093F100B6C0993009F096
:1040B000B3C0837009F039C1E9E0F1E081E031E09B
:1040C00096E32081211109C08EE78093EA001092C7
:1040D000EA008F89809388049FC08093E900309321
:1040E000EB0021912093EC009093ED008F5F8730DF
:1040F00041F7EACF8B8D9C8D1092E90010927404E9
:10410000109273049093720480937104898D8111CD
:1041100053C08E899D89913A49F4813209F005C1D5
:1041200047E050E063E171E080E0BBC0913209F00C
:10413000FCC0833269F48F89988DA0E0B0E0809351
:104140000F0190931001A0931101B093120164C06C
:10415000803269F48091E80082FFFCCF67E083E160
:1041600091E00E94031D8BEF8093E80055C08232DE
:1041700009F052C08F8980931A01EEEFFFE7859115
:1041800094918B3F9C4D19F0E0E0F8E002C0EEEF17
:10419000FAE08091130190911401A0911501B09162
:1041A0001601803B9440A105B10509F09EC08091A5
:1041B0001A0180FF79C099C00E943A1DFC0102815A
:1041C00013810115110509F4B0C0D801ED91FC91DE
:1041D0000190F081E02DBE016B5E7F4FC801099513
:1041E00081111AC0F80100851185EBCFF1E0FF16AF
:1041F00009F44EC0F3E0FF1298C08F89882309F4B8
:104200004AC0823089F440E867E08AE398E00E947F
:104210002A35882309F489C08EEF8093E80088C08E
:1042200018161906CCF381C0813029F440E86BE000
:104230008EE298E0ECCF833009F077C00E943A1DFF
:10424000DC011296ED90FC9013978E010F5F1F4FCB
:104250006801E114F10479F0D701ED91FC91068039
:10426000F781E02DB801C7010995080F111DF7016D
:10427000E084F184EECFD8011C92F6010190002079
:10428000E9F73197BF016C197D0940E0C601BFCF46
:104290006CE178E002C068E178E0FB01449150E015
:1042A00080E80E94CB1CB8CFEE3F2AE0F20751F025
:1042B000808191818737A7E79A0721F09093FF0AC1
:1042C0008093FE0A87E797E791838083809160005F
:1042D000809375049BE088E10FB6F894A8958093CD
:1042E00060000FBE9093600097CF808191818737E7
:1042F000974709F091CFA8958091600088618093DD
:1043000060008091750480936000EE3FBAE0FB0787
:1043100039F08091FE0A9091FF0A918380837CCFCF
:104320001092FF0A1092FE0A77CF81E28093EB0091
:104330006C960FB6F894DEBF0FBECDBFDF91CF9164
:10434000FF91EF91BF91AF919F918F917F916F916D
:104350005F914F913F912F911F910F91FF90EF909F
:10436000DF90CF900F900FBE0F901F9018957F9207
:104370008F929F92AF92BF92CF92DF92EF92FF9275
:104380000F931F93CF93DF93C82E8B017A018091F7
:104390008804811103C08FEF9FEF74C08091A50244
:1043A00080FF05C08091E00082608093E000CE2D08
:1043B000DF2DD12C8AEFB82E8C2D8770982E8C2D66
:1043C0008072882E8C2D8074782E9AE3A92E2097E7
:1043D00019F4DD2009F451C08C2D0E94F21C8111CA
:1043E0000AC0BA94BB20B9F261E070E080E090E0CE
:1043F0000E945530ECCF282F30E0C217D3070CF4C1
:104400008C2F9FB7F8949092E9002091E80025FF47
:1044100032C0282F30E0C21BD30B882029F08150F6
:10442000A0F01092F100FBCFF801C7FE0AC0815046
:1044300050F044914093F1003196F9CF419140936F
:10444000F1008150D8F7020F131FDD2019F0A09260
:10445000E8000AC08091E80085FD08C0A092E8004D
:10446000DD24D394209739F0D12C05C0209719F47E
:104470007110A092E8009FBFAACF5D9884E6809358
:104480007604C701DF91CF911F910F91FF90EF90BC
:10449000DF90CF90BF90AF909F908F907F900895C6
:1044A000CF93DF93EC0180911A01882331F083E0F0
:1044B0000E94B7211816190634F081E090E09B8322
:1044C0008A8380E090E0DF91CF91089580915D0430
:1044D00081116AC081E0809350048093510426E5E5
:1044E00034E03093530420935204109255041092F8
:1044F000540427E231E030934D0420934C04109291
:1045000058041092570410925A0410925904809340
:104510005B0480935C0481EC809356040E943A1DF6
:10452000FC0121818091500490E0820F911D089739
:10453000C4F5A281B381109729F48CE494E09383AD
:1045400082830EC018968D919C911997009711F057
:10455000DC01F8CF8CE494E019969C938E93189725
:10456000808180934E04818180934F04908180915B
:104570005104890F808380E090915004891788F45A
:10458000A0915204B0915304A80FB11D9C91A18138
:10459000B0E0A85FBE4F9C9391819F5F91838F5F36
:1045A000EBCF81E080935D048CE494E00895CF9399
:1045B000DF93DC01683810F0685825C0E62FF0E082
:1045C00067FF12C0E058F10981E090E001C0880F58
:1045D000EA95EAF7809514969C911497892314968E
:1045E0008C93149760E00FC0EA5AF84F64916623E9
:1045F00021F167FF08C014968C9114978D7F149653
:104600008C9314976F77FD0186E0662321F09681E5
:10461000691301C01682815031968111F6CFED01E8
:104620000E946622AE014C5F5F4F28E030E062E0FE
:104630000E940F2F81E090E002C080E090E0DF91C7
:10464000CF910895EF92FF921F93CF93DF93EC01E8
:10465000162F0E943D237C01612FCE010E94D7229C
:10466000C7019927DF91CF911F91FF90EF90089597
:104670000895089580E090E00895CF93DF93DC01E2
:10468000683810F068582DC0E62FF0E067FF11C0C1
:10469000E058F10981E090E001C0880FEA95EAF75F
:1046A00014969C911497892B14968C93149760E020
:1046B00018C0EA5AF84F6491611109C081E090E096
:1046C00013969C938E93129780E090E046C067FF0C
:1046D00008C014968C911497826014968C9314974A
:1046E0006F7716968C911697681751F117968C91E3
:1046F0001797681729F118968C911897681701F188
:1047000019968C9119976817D9F01A968C911A9767
:104710006817B1F01B968C911B97681789F0FD0103
:10472000369680E090E02191211105C0FD01E80F4F
:10473000F91F668305C0019686309105A1F7BECFAB
:10474000ED010E946622AE014C5F5F4F28E030E031
:1047500062E00E940F2F81E090E0DF91CF910895F9
:10476000BC0180E090E00C9455308FB18095807F43
:10477000669B88601C9B846008951F93CF93DF9392
:10478000EC01162F0E942E36181739F0612FCE013A
:10479000DF91CF911F910C943636DF91CF911F910D
:1047A000089580389105B8F460347105A0F490E163
:1047B00021E061FD24E060FD220F62FD2295687F0B
:1047C000969FD0011124A80FA657BB4F8C91822B26
:1047D00040FF82278C93089580917D0490917E0400
:1047E000009729F0936090937E0480937D048091DC
:1047F0007D0490917E0408953F924F925F926F9254
:104800007F928F929F92AF92BF92CF92DF92EF9260
:10481000FF920F931F93CF93DF9300D000D0CDB7BB
:10482000DEB780916909853009F0BDC080916E09BD
:10483000883038F085E00E94181681E080930501E9
:10484000B2C020916C092983283008F094C0A0E1FF
:104850002A9FC00111248951974F9A838983DC01D3
:104860008C91882309F487C0109709F484C001E073
:1048700010E0E8E04E2E512C3D01BDE06B0E711CA6
:10488000E980FA80ECE0EE0EF11CC980DA80FAE0F3
:10489000CF0ED11CA980BA802FE0A20EB11C898056
:1048A0009A8088E0880E911CA981BA811E96BC83EB
:1048B000AB8380916E0990E0801791070CF473C070
:1048C000F201E01BF10BD3018C91809FD001819FFD
:1048D000B00D1124CD0163E0959587956A95E1F7B8
:1048E0009A838983D7018C91809FA001819F500D6D
:1048F000112473E0559547957A95E1F7D6018D918E
:104900009C91089FB001099F700D189F700D112494
:10491000D5012C912E9FC0012F9F900D1124680F5F
:10492000791F77FF02C0695F7F4F53E075956795E8
:104930005A95E1F7D4018D919C91089F9001099FB0
:10494000300D189F300D1124AB81BC813C903E9EF0
:10495000C0013F9E900D1124820F931F97FD079673
:10496000298133E0959587953A95E1F70E94592E74
:104970000F5F1F4F9ECF85E00F900F900F900F900D
:10498000DF91CF911F910F91FF90EF90DF90CF902B
:10499000BF90AF909F908F907F906F905F904F905F
:1049A0003F900C9418160F900F900F900F90DF917E
:1049B000CF911F910F91FF90EF90DF90CF90BF901C
:1049C000AF909F908F907F906F905F904F903F90AF
:1049D00008952091A7022F3F49F040E1249F9001C4
:1049E00011242951374F8217930721F081E08093DA
:1049F0000501089581E08093B002089547EE58E0E4
:104A000020E030E08417950711F4822F08952F5F7E
:104A10003F4F405F5F4F28303105A1F78FEF08957A
:104A2000FC012081213039F10E94FE24E7EAF2E006
:104A300020E030E091919F3F61F0891731F02F5FC6
:104A40003F4F28303105B1F704C02115310599F0E9
:104A500002C02FEF30E0D901A955BD4FFD01929161
:104A60009C93DF01F2E0A73ABF07C1F78093A7024A
:104A700081E0809305010895CF93DF93E7EEF8E09E
:104A800020E030E0908191112EC0E90194E0CC0F3C
:104A9000DD1F9A95E1F7C951D74F88837C836B83DB
:104AA0001986188682E38C8782E390E09B878A8749
:104AB0005A834983E7EAF2E080E090E041914F3F7A
:104AC00029F4FC01E955FD4F208304C0019688308C
:104AD0009105A1F7CE010E94102566E0CE010E944B
:104AE0003416CE0108C02F5F3F4F70962830310535
:104AF00049F680E090E0DF91CF910895CF93DF9366
:104B0000EC010E94FE24E7EAF2E020E030E091911F
:104B10009F3FD1F0891731F02F5F3F4F283031058B
:104B2000B1F712C0F901E955FD4F8FEF273031057C
:104B300019F48093AE0202C0918190832F5F3F4FA2
:104B400031962830310591F7188281E08093050174
:104B5000DF91CF910895CF92DF92EF92FF920F9362
:104B60001F93CF93DF93EC018091690985508230C8
:104B700040F410916C09CE010E94FE24181709F42C
:104B800009C18091AF028823A1F088859985209181
:104B90007B0430917C04821B930B998788878A85DC
:104BA0009B852091790430917A04821B930B9B871B
:104BB0008A878881823009F4CEC010927E041092D8
:104BC0007D04833009F09EC06A857B8501E02D85D8
:104BD0004C85888599850E94A1156A857B852D85E0
:104BE0004C85888599850E94592E8D856A857B859F
:104BF000680F711D888599854C8501960E94E72A6A
:104C00006A857B856F5F7F4F3C858885998520E02D
:104C10004D85830F911D0E94872A6A857B85685F79
:104C20007F4F4C85888599850E94E72A02E010E035
:104C30004C8544506A857B85600F711F88859985F6
:104C400002960E94E72A0E5F1F4F0830110581F778
:104C50006E0125E0C20ED11CC6010E943111880FE1
:104C6000991F880F991F7C0197FF03C02FEFE21A4D
:104C7000F20AF594E794F194E194F10844E0480FC6
:104C80006A857B856F5F7F4F2C8526958885998502
:104C9000820F911D8E0D9F1D01E026E002970E945C
:104CA000A1154A855B854E5F5F4F8C85869568852B
:104CB0007985680F711D6E0D7F1D20E0C6010E9471
:104CC000E9146A857B856F5F7F4F8885998527E02A
:104CD00047E004960E94A1156A857B856E5F7F4F31
:104CE0008885998525E045E005960E94592E80919A
:104CF0006909823039F410916C09CE010E94FE24BA
:104D00001817F1F061E0CE010E9434168091AF02D5
:104D1000882309F43FC02885398580917B049091D0
:104D20007C04820F931F998788872A853B85809111
:104D3000790490917A04820F931F9B878A872AC0F7
:104D40006A857B856C5F7F4F8885998540E00796F3
:104D50000E94D123D7CF6A857B8501E02D854C85C4
:104D6000888599850E94A1156A857B852D854C854E
:104D7000888599850E94592E2D8524504C85445054
:104D80006A857B856E5F7F4F8885998502960E9434
:104D9000592EB8CFDF91CF911F910F91FF90EF90D7
:104DA000DF90CF9008952F923F924F925F926F9233
:104DB0007F928F929F92AF92BF92CF92DF92EF92AB
:104DC000FF920F931F93CF93DF93CDB7DEB7289752
:104DD0000FB6F894DEBF0FBECDBF6C012B018A0168
:104DE000809189048F5F80938904FB018081918188
:104DF0004817590710F451834083F60124858085B4
:104E00009185AC01420F511D5C834B833A015AE0FE
:104E1000651A710822853385C90109969E838D83A1
:104E2000E584F12CF901EE0DFF1DF887EF834701B2
:104E3000F9E28F1A9108590144E1A40EB11C011541
:104E4000110589F0F20140815181849EC001859E47
:104E5000900D949E900D1124B8010E9485361B017F
:104E60002A0C3B1C02C0212C312C80916809823015
:104E700009F45AC058F4813009F01CC1FAE0EF1A65
:104E8000F108C12CD12C442443941AC0833009F476
:104E9000F9C0843009F4BFC00DC1B401650D711DA6
:104EA00040E0C5010E94D123542422E0A20EB11C8F
:104EB0004B815C814A155B0581F752E0C50ED11C20
:104EC000CE14DF043CF45301512C8D809E808C0C59
:104ED0009D1CE3CF20E04E2D6D817E818B819C81D6
:104EE0000B970E94872A48E658E06D817E81C301B6
:104EF0000E94272C6F8178856C50710942E458E03C
:104F0000C3010E94272C012B09F4D4C001E029E041
:104F100049E0B101C3010E94A11529E049E0B101B6
:104F2000C3010E94592EC6C00115110509F4C2C063
:104F30008091700990E0861597050CF4BBC0EB8159
:104F4000FC818E179F070CF0B5C08091720990E02C
:104F50004D815E81841795070CF4ACC04F81588554
:104F600041505109841795070CF0A4C02D5E3F4FA6
:104F70002817390744F0F20180819181009709F4E4
:104F800099C001970FC06F8178856B5071098617A2
:104F9000970774F0F201808191818017910708F0E2
:104FA00089C0019691838083C6010E94E9247FC055
:104FB0008215930594F0F8E02F0E311C281639065F
:104FC00064F0C6010E94F1159A838983BE016F5F68
:104FD0007F4F84E00E9424166AC004979501A816AA
:104FE000B9060CF49C01C4018A0D9B1D28173907D2
:104FF0000CF4C9019C012A193B09209FC001219F83
:10500000900D309F900D1124B4010E948536F2015D
:1050100071836083C9CF80916909843009F04AC0E7
:10502000C6010E94F1159A838983BE016F5F7F4F8D
:105030008CE699E00E94F915882321F1809172098C
:1050400090E004979501A816B9060CF49C01C401E0
:105050008A0D9B1D281739070CF4C9019C012A19D8
:105060003B09209FC001219F900D309F900D11247E
:10507000B4010E948536F20171836083C6010E94EB
:10508000E92418C0809169098430A1F4C6010E9406
:10509000F1159A838983BE016F5F7F4F8CE699E09B
:1050A0000E94F915882331F084E00E9418168BE0E5
:1050B0008093680928960FB6F894DEBF0FBECDBF67
:1050C000DF91CF911F910F91FF90EF90DF90CF90E4
:1050D000BF90AF909F908F907F906F905F904F9018
:1050E0003F902F9008952F923F924F925F926F9230
:1050F0007F928F929F92AF92BF92CF92DF92EF9268
:10510000FF920F931F93CF93DF93CDB7DEB729970D
:105110000FB6F894DEBF0FBECDBF4C012B831987AD
:105120000887809189048F5F80938904F4016084EB
:105130007184660E771EA284B384A40EB51E022F5E
:1051400010E0045011091301F2E02F0E311CF12C74
:105150004C2D50E05D834C834E195F095F834E8375
:10516000E885F985208130E02E193F09209FC00194
:10517000219F900D309F900D1124BA010E94993605
:10518000620D731D6B01F4E0CF1AD108250122E0F6
:10519000421A510880916809823061F128F5813006
:1051A00009F09DC001E025E04B81B501C3010E94DB
:1051B000A11525E04B81B501C3010E94592E4B81F9
:1051C0004450B5016E5F7F4FC1010E94E72A28E07D
:1051D00048E0B201C6010E94A11528E048E0B201F2
:1051E000C6010E94592E7BC0833009F460C0843010
:1051F00041F175C02091700930E02C153D050CF48B
:105200006EC08091720990E0841595050CF467C01A
:105210006D5F7F4F621773070CF461C045E0A40E09
:10522000B11CA816B9060CF45AC0C4010E94F115AD
:105230009A838983BE016F5F7F4F87E00E942416A7
:105240004BC080916909873009F049C0C4010E94B0
:10525000F1159A838983BE016F5F7F4F8CE699E0D9
:105260000E94F9158823D9F12091700930E02219A4
:105270003309EE81FF812E9FC0012F9F900D3E9F2D
:10528000900D1124B8010E9499366E0D7F1D6E1588
:105290007F0534F0EC80FD806E157F050CF47B01FA
:1052A000E885F985E082C4010E94E92418C0809154
:1052B00069098730A1F4C4010E94F1159A8389839A
:1052C000BE016F5F7F4F8CE699E00E94F91588233D
:1052D00031F087E00E9418168BE0809368092996C8
:1052E0000FB6F894DEBF0FBECDBFDF91CF911F91F7
:1052F0000F91FF90EF90DF90CF90BF90AF909F9075
:105300008F907F906F905F904F903F902F90089577
:1053100080917D0490917E04862B972B90937E0440
:1053200080937D0480916809883081F4E09177044E
:10533000F0917804309721F03C962591349102C089
:1053400020E030E081E06217730709F080E0089503
:105350002F923F924F925F926F927F928F929F9285
:10536000AF92BF92CF92DF92EF92FF920F931F9373
:10537000CF93DF9300D000D000D0CDB7DEB74C0183
:105380007E836D832A01FC01808591855901A80ED9
:10539000B91E828593857801E80EF91E80918904F3
:1053A0008F5F80938904CA010E943111880F991F71
:1053B000880F991F3C01F2E06F0E711C650124E01B
:1053C000C20ED11C930177FE02C02F5F3F4F35956F
:1053D0002795C21AD30A17014CE0240E311C809184
:1053E000700990E08A159B05A4F02091720930E0C5
:1053F0002E153F0574F0A501485F5F4F4817590708
:1054000044F0E1E0EC83A701455F5F4F421753078B
:105410000CF41C828C159D0594F02091720930E0EB
:105420002215330564F0A3014C0D5D1D841795070B
:1054300034F401E0C7014496281739070CF000E066
:10544000C4010E94F1159A838983BE016F5F7F4F6B
:105450008AE699E00E94F915182FF0916809FB83FC
:10546000F13019F0F230D1F02CC04D815E81B701DE
:10547000C5010E94272C0B81012728E0462DB10190
:10548000C6010E94A115A701435F5F4FB6016F5F80
:105490007F4F212FC2010E94E91413C02C812111DA
:1054A00002C0002371F0C4010E94F11590936B09B2
:1054B00080936A098BE08093680981E080930501FD
:1054C00001C010E0812F26960FB6F894DEBF0FBE04
:1054D000CDBFDF91CF911F910F91FF90EF90DF90A3
:1054E000CF90BF90AF909F908F907F906F905F9084
:1054F0004F903F902F90089583E08093E900809132
:10550000F200882319F08AE38093E8000895DF927F
:10551000EF92FF920F931F93CF93DF937C01D22ED4
:105520008B01040F111DEB0177FF02C0C0E0D0E03A
:10553000C8010134110514F080E490E0C817D907C0
:105540003CF44D2DBE01C7010E94D1232196F0CF1E
:10555000DF91CF911F910F91FF90EF90DF90089511
:105560009C01240F311D1216130684F58038910515
:105570006CF597FF02C080E090E02138310514F00F
:1055800020E830E0281BFB01E770FF2741E050E0F6
:1055900001C0440FEA95EAF7409577FF02C0695FC2
:1055A0007F4F33E0759567953A95E1F77695762FBD
:1055B000662777956795860F971FFC01E657FB4F87
:1055C000215020F0808184238193FACF08956034A4
:1055D000710510F40C94B02A08957F928F929F92D7
:1055E000AF92BF92CF92DF92EF92FF920F931F93F1
:1055F000CF93DF9300D000D01F92CDB7DEB74C0120
:105600004B835C836D83909189049F5F90938904A1
:10561000F401808591856901C80ED91E8285938524
:105620007801E80EF91ECE0103960E943111880F11
:10563000991F880F991F5C01F4E0AF0EB11C2091F7
:10564000700930E02C153D059CF08091720990E0C6
:105650008E159F056CF0A6014A0D5B1D24173507BA
:105660003CF411E09701265F3F4F821793070CF03F
:1056700010E080916909813081F4C4010E94F11524
:105680009A838983BE016F5F7F4F8CE699E00E9409
:10569000F915882319F0712E02C080E0712C009159
:1056A0006809023009F440C0D0F5013009F062C049
:1056B00007252AE04A2DB701C6010E94A115A701BE
:1056C0004E5F5F4FB6016E5F7F4F272DCE01039671
:1056D0000E94E9148EEF982E9A0C86010F5F1F4FDF
:1056E000492DB701C8010E94E72AB701675F7F4FC4
:1056F000492DC8010E94E72A2FEFE21AF20A20E0A2
:1057000048E0B701C6010E94872AC6018A0D9B1D89
:1057100020E048E0B70101970E94872A2BC00330A0
:10572000E9F00430A9F026C0112329F1C4010E9438
:10573000F1159A838983BE016F5F7F4F81E00E94DC
:105740002416C4010E94E9248BE08093680912C0EA
:10575000882381F0C4010E94E9240CC0882351F001
:1057600081E00E941816C4010E94E9248BE0809316
:10577000680901C010E0812F0F900F900F900F90DB
:105780000F90DF91CF911F910F91FF90EF90DF90DD
:10579000CF90BF90AF909F908F907F900895CF92C1
:1057A000DF92EF92FF920F931F93CF93DF9300D07E
:1057B00000D01F92CDB7DEB77C01009789F460E07E
:1057C00080E30F900F900F900F900F90DF91CF918B
:1057D0001F910F91FF90EF90DF90CF900C940613E4
:1057E00097FF04C060E08DE20E940613CE0101968F
:1057F0006C01FC0100E010E02AE030E0C701B901D3
:105800000E949936805D81937B010F5F1F4F0530A9
:10581000110519F0E114F10489F70C0D1D1DC016D6
:10582000D10639F060E0F80182918F010E940613E1
:10583000F6CF0F900F900F900F900F90DF91CF91B8
:105840001F910F91FF90EF90DF90CF9008958F926E
:105850009F92AF92BF92CF92DF92EF92FF920F93FF
:105860001F93CF93DC019B014115510509F4B7C08B
:10587000FA01749131969491E72EF12C8D010E0D61
:105880001F1D101611060CF0AAC0A038B1050CF0AF
:10589000A6C0F901E90FF11D1E161F060CF09FC0EE
:1058A000203431050CF09BC0C22FC770F90137FDC1
:1058B000379663E0F595E7956A95E1F78E2F37FF08
:1058C00004C0CC2311F08FEF8E0FB7FF05C0CC249E
:1058D000DD24CA1ADB0A02C0C12CD12C0038110504
:1058E0001CF020E82A1B01C0272F2C19082F082E96
:1058F000000C110B8F3F1CF4602F609501C060E01D
:10590000F1E0392F377009F4F0E0E92FE695E695DC
:10591000E695EF0F0E0F111D0930110514F0E8E0A8
:10592000E81BE61B382F360F10E83103A00DB11D20
:105930001124AC0DBD1DA657BB4FA22EB12C4E5F3E
:105940005F4F769FC00CD11C1124CC0CDD1CCA010A
:105950008C0D9D1D00E810E00A191B09B7016A199A
:105960007B09660F771F41E050E07A010C2E01C0E1
:10597000EE0C0A94EAF75E2F822EFC019C2ECF9348
:10598000DF93ED01EF96EF962296A590C5909920B2
:1059900059F0AE9C5001CE9C600137302CF4F88059
:1059A000D094FD20FB28F99233233AF0FC90C09468
:1059B000FC20FA28FD920C94DE2C11962A9529F7EA
:1059C0005A9551F0282D33951124E60FF11DA00FA3
:1059D000B11DC00FD11DD9CFDF91CF911124CF912F
:1059E0001F910F91FF90EF90DF90CF90BF90AF90FD
:1059F0009F908F900895DC01CB0160916809613020
:105A000081F41A96ED91FC911B97E20FF31F189603
:105A10006D917C911997640F751F20E0AF010C9474
:105A2000E914089520918804211103C08FEF9FEF9E
:105A300008955FB7F89422E02093E9002091F200E6
:105A400030E01216130614F421E030E0422FFC017E
:105A500084E6415038F02898809387049091F100B3
:105A60009193F7CF2115310521F08091F200882321
:105A700019F05FBFC90108958BE68093E800F9CF64
:105A80002F923F924F925F926F927F928F929F924E
:105A9000AF92BF92CF92DF92EF92FF920F931F933C
:105AA000CF93DF9300D000D000D0CDB7DEB79E8378
:105AB0008D834B013A01B02E2601709386046093CA
:105AC0008504509384044093830426952695222EC2
:105AD000312C87010E9431117C01C12CD12CCE14B4
